{
  "_format": "hh-sol-artifact-1",
  "contractName": "ArcheChainLink",
  "sourceName": "contracts/ArcheChainLink.sol",
  "abi": [
    {
      "inputs": [
        {
          "internalType": "address",
          "name": "_aggregator",
          "type": "address"
        }
      ],
      "stateMutability": "nonpayable",
      "type": "constructor"
    },
    {
      "anonymous": false,
      "inputs": [
        {
          "indexed": true,
          "internalType": "address",
          "name": "previousOwner",
          "type": "address"
        },
        {
          "indexed": true,
          "internalType": "address",
          "name": "newOwner",
          "type": "address"
        }
      ],
      "name": "OwnershipTransferred",
      "type": "event"
    },
    {
      "inputs": [],
      "name": "aggregator",
      "outputs": [
        {
          "internalType": "address",
          "name": "",
          "type": "address"
        }
      ],
      "stateMutability": "view",
      "type": "function"
    },
    {
      "inputs": [
        {
          "internalType": "address",
          "name": "_aggregator",
          "type": "address"
        }
      ],
      "name": "confirmAggregator",
      "outputs": [],
      "stateMutability": "nonpayable",
      "type": "function"
    },
    {
      "inputs": [],
      "name": "decimals",
      "outputs": [
        {
          "internalType": "uint8",
          "name": "",
          "type": "uint8"
        }
      ],
      "stateMutability": "view",
      "type": "function"
    },
    {
      "inputs": [],
      "name": "description",
      "outputs": [
        {
          "internalType": "string",
          "name": "",
          "type": "string"
        }
      ],
      "stateMutability": "view",
      "type": "function"
    },
    {
      "inputs": [
        {
          "internalType": "uint80",
          "name": "_roundId",
          "type": "uint80"
        }
      ],
      "name": "getRoundData",
      "outputs": [
        {
          "internalType": "uint80",
          "name": "roundId",
          "type": "uint80"
        },
        {
          "internalType": "int256",
          "name": "answer",
          "type": "int256"
        },
        {
          "internalType": "uint256",
          "name": "startedAt",
          "type": "uint256"
        },
        {
          "internalType": "uint256",
          "name": "updatedAt",
          "type": "uint256"
        },
        {
          "internalType": "uint80",
          "name": "answeredInRound",
          "type": "uint80"
        }
      ],
      "stateMutability": "view",
      "type": "function"
    },
    {
      "inputs": [],
      "name": "latestRoundData",
      "outputs": [
        {
          "internalType": "uint80",
          "name": "roundId",
          "type": "uint80"
        },
        {
          "internalType": "int256",
          "name": "answer",
          "type": "int256"
        },
        {
          "internalType": "uint256",
          "name": "startedAt",
          "type": "uint256"
        },
        {
          "internalType": "uint256",
          "name": "updatedAt",
          "type": "uint256"
        },
        {
          "internalType": "uint80",
          "name": "answeredInRound",
          "type": "uint80"
        }
      ],
      "stateMutability": "view",
      "type": "function"
    },
    {
      "inputs": [],
      "name": "owner",
      "outputs": [
        {
          "internalType": "address",
          "name": "",
          "type": "address"
        }
      ],
      "stateMutability": "view",
      "type": "function"
    },
    {
      "inputs": [
        {
          "internalType": "uint16",
          "name": "",
          "type": "uint16"
        }
      ],
      "name": "phaseAggregators",
      "outputs": [
        {
          "internalType": "contract AggregatorV3Interface",
          "name": "",
          "type": "address"
        }
      ],
      "stateMutability": "view",
      "type": "function"
    },
    {
      "inputs": [],
      "name": "phaseId",
      "outputs": [
        {
          "internalType": "uint16",
          "name": "",
          "type": "uint16"
        }
      ],
      "stateMutability": "view",
      "type": "function"
    },
    {
      "inputs": [
        {
          "internalType": "address",
          "name": "_aggregator",
          "type": "address"
        }
      ],
      "name": "proposeAggregator",
      "outputs": [],
      "stateMutability": "nonpayable",
      "type": "function"
    },
    {
      "inputs": [],
      "name": "proposedAggregator",
      "outputs": [
        {
          "internalType": "contract AggregatorV3Interface",
          "name": "",
          "type": "address"
        }
      ],
      "stateMutability": "view",
      "type": "function"
    },
    {
      "inputs": [
        {
          "internalType": "uint80",
          "name": "_roundId",
          "type": "uint80"
        }
      ],
      "name": "proposedGetRoundData",
      "outputs": [
        {
          "internalType": "uint80",
          "name": "roundId",
          "type": "uint80"
        },
        {
          "internalType": "int256",
          "name": "answer",
          "type": "int256"
        },
        {
          "internalType": "uint256",
          "name": "startedAt",
          "type": "uint256"
        },
        {
          "internalType": "uint256",
          "name": "updatedAt",
          "type": "uint256"
        },
        {
          "internalType": "uint80",
          "name": "answeredInRound",
          "type": "uint80"
        }
      ],
      "stateMutability": "view",
      "type": "function"
    },
    {
      "inputs": [],
      "name": "proposedLatestRoundData",
      "outputs": [
        {
          "internalType": "uint80",
          "name": "roundId",
          "type": "uint80"
        },
        {
          "internalType": "int256",
          "name": "answer",
          "type": "int256"
        },
        {
          "internalType": "uint256",
          "name": "startedAt",
          "type": "uint256"
        },
        {
          "internalType": "uint256",
          "name": "updatedAt",
          "type": "uint256"
        },
        {
          "internalType": "uint80",
          "name": "answeredInRound",
          "type": "uint80"
        }
      ],
      "stateMutability": "view",
      "type": "function"
    },
    {
      "inputs": [],
      "name": "renounceOwnership",
      "outputs": [],
      "stateMutability": "nonpayable",
      "type": "function"
    },
    {
      "inputs": [
        {
          "internalType": "address",
          "name": "newOwner",
          "type": "address"
        }
      ],
      "name": "transferOwnership",
      "outputs": [],
      "stateMutability": "nonpayable",
      "type": "function"
    },
    {
      "inputs": [],
      "name": "version",
      "outputs": [
        {
          "internalType": "uint256",
          "name": "",
          "type": "uint256"
        }
      ],
      "stateMutability": "view",
      "type": "function"
    }
  ],
  "bytecode": "0x60806040523480156200001157600080fd5b5060405162001ddd38038062001ddd83398181016040528101906200003791906200023f565b600062000049620000ff60201b60201c565b9050806000806101000a81548173ffffffffffffffffffffffffffffffffffffffff021916908373ffffffffffffffffffffffffffffffffffffffff1602179055508073ffffffffffffffffffffffffffffffffffffffff16600073ffffffffffffffffffffffffffffffffffffffff167f8be0079c531659141344cd1fd0a4f28419497f9722a3daafe3b4186f6b6457e060405160405180910390a350620000f8816200010760201b60201c565b5062000335565b600033905090565b600060018060000160009054906101000a900461ffff166200012a91906200026b565b905060405180604001604052808261ffff1681526020018373ffffffffffffffffffffffffffffffffffffffff16815250600160008201518160000160006101000a81548161ffff021916908361ffff16021790555060208201518160000160026101000a81548173ffffffffffffffffffffffffffffffffffffffff021916908373ffffffffffffffffffffffffffffffffffffffff16021790555090505081600360008361ffff1661ffff16815260200190815260200160002060006101000a81548173ffffffffffffffffffffffffffffffffffffffff021916908373ffffffffffffffffffffffffffffffffffffffff1602179055505050565b60008151905062000239816200031b565b92915050565b6000602082840312156200025257600080fd5b6000620002628482850162000228565b91505092915050565b60006200027882620002be565b91506200028583620002be565b92508261ffff038211156200029f576200029e620002ec565b5b828201905092915050565b6000620002b782620002cc565b9050919050565b600061ffff82169050919050565b600073ffffffffffffffffffffffffffffffffffffffff82169050919050565b7f4e487b7100000000000000000000000000000000000000000000000000000000600052601160045260246000fd5b6200032681620002aa565b81146200033257600080fd5b50565b611a9880620003456000396000f3fe608060405234801561001057600080fd5b50600436106101005760003560e01c80638f6b4d9111610097578063e8c4be3011610066578063e8c4be3014610299578063f2fde38b146102b7578063f8a2abd3146102d3578063feaf968c146102ef57610100565b80638f6b4d91146101f75780639a6fc8f514610219578063a928c0961461024d578063c15973041461026957610100565b80636001ac53116100d35780636001ac531461017d578063715018a6146101b15780637284e416146101bb5780638da5cb5b146101d957610100565b8063245a7bfc14610105578063313ce5671461012357806354fd4d501461014157806358303b101461015f575b600080fd5b61010d610311565b60405161011a919061151e565b60405180910390f35b61012b61033e565b60405161013891906116b5565b60405180910390f35b6101496103e8565b6040516101569190611611565b60405180910390f35b610167610492565b60405161017491906115f6565b60405180910390f35b61019760048036038101906101929190611318565b6104ad565b6040516101a8959493929190611662565b60405180910390f35b6101b9610604565b005b6101c361073e565b6040516101d09190611554565b60405180910390f35b6101e16107ed565b6040516101ee919061151e565b60405180910390f35b6101ff610816565b604051610210959493929190611662565b60405180910390f35b610233600480360381019061022e9190611318565b610960565b604051610244959493929190611662565b60405180910390f35b6102676004803603810190610262919061125c565b610a7f565b005b610283600480360381019061027e91906112c6565b610bbc565b6040516102909190611539565b60405180910390f35b6102a1610bef565b6040516102ae9190611539565b60405180910390f35b6102d160048036038101906102cc919061125c565b610c15565b005b6102ed60048036038101906102e8919061125c565b610dbe565b005b6102f7610e7e565b604051610308959493929190611662565b60405180910390f35b6000600160000160029054906101000a900473ffffffffffffffffffffffffffffffffffffffff16905090565b6000600160000160029054906101000a900473ffffffffffffffffffffffffffffffffffffffff1673ffffffffffffffffffffffffffffffffffffffff1663313ce5676040518163ffffffff1660e01b815260040160206040518083038186803b1580156103ab57600080fd5b505afa1580156103bf573d6000803e3d6000fd5b505050506040513d601f19601f820116820180604052508101906103e391906113b8565b905090565b6000600160000160029054906101000a900473ffffffffffffffffffffffffffffffffffffffff1673ffffffffffffffffffffffffffffffffffffffff166354fd4d506040518163ffffffff1660e01b815260040160206040518083038186803b15801561045557600080fd5b505afa158015610469573d6000803e3d6000fd5b505050506040513d601f19601f8201168201806040525081019061048d91906112ef565b905090565b6000600160000160009054906101000a900461ffff16905090565b60008060008060008073ffffffffffffffffffffffffffffffffffffffff16600260009054906101000a900473ffffffffffffffffffffffffffffffffffffffff1673ffffffffffffffffffffffffffffffffffffffff161415610546576040517f08c379a000000000000000000000000000000000000000000000000000000000815260040161053d90611596565b60405180910390fd5b600260009054906101000a900473ffffffffffffffffffffffffffffffffffffffff1673ffffffffffffffffffffffffffffffffffffffff16639a6fc8f5876040518263ffffffff1660e01b81526004016105a19190611647565b60a06040518083038186803b1580156105b957600080fd5b505afa1580156105cd573d6000803e3d6000fd5b505050506040513d601f19601f820116820180604052508101906105f19190611341565b9450945094509450945091939590929450565b61060c610fc6565b73ffffffffffffffffffffffffffffffffffffffff1661062a6107ed565b73ffffffffffffffffffffffffffffffffffffffff1614610680576040517f08c379a0000000000000000000000000000000000000000000000000000000008152600401610677906115b6565b60405180910390fd5b600073ffffffffffffffffffffffffffffffffffffffff1660008054906101000a900473ffffffffffffffffffffffffffffffffffffffff1673ffffffffffffffffffffffffffffffffffffffff167f8be0079c531659141344cd1fd0a4f28419497f9722a3daafe3b4186f6b6457e060405160405180910390a360008060006101000a81548173ffffffffffffffffffffffffffffffffffffffff021916908373ffffffffffffffffffffffffffffffffffffffff160217905550565b6060600160000160029054906101000a900473ffffffffffffffffffffffffffffffffffffffff1673ffffffffffffffffffffffffffffffffffffffff16637284e4166040518163ffffffff1660e01b815260040160006040518083038186803b1580156107ab57600080fd5b505afa1580156107bf573d6000803e3d6000fd5b505050506040513d6000823e3d601f19601f820116820180604052508101906107e89190611285565b905090565b60008060009054906101000a900473ffffffffffffffffffffffffffffffffffffffff16905090565b60008060008060008073ffffffffffffffffffffffffffffffffffffffff16600260009054906101000a900473ffffffffffffffffffffffffffffffffffffffff1673ffffffffffffffffffffffffffffffffffffffff1614156108af576040517f08c379a00000000000000000000000000000000000000000000000000000000081526004016108a690611596565b60405180910390fd5b600260009054906101000a900473ffffffffffffffffffffffffffffffffffffffff1673ffffffffffffffffffffffffffffffffffffffff1663feaf968c6040518163ffffffff1660e01b815260040160a06040518083038186803b15801561091757600080fd5b505afa15801561092b573d6000803e3d6000fd5b505050506040513d601f19601f8201168201806040525081019061094f9190611341565b945094509450945094509091929394565b60008060008060008060006109808869ffffffffffffffffffff16610fce565b91509150600360008361ffff1661ffff16815260200190815260200160002060009054906101000a900473ffffffffffffffffffffffffffffffffffffffff1673ffffffffffffffffffffffffffffffffffffffff16639a6fc8f5826040518263ffffffff1660e01b81526004016109f8919061162c565b60a06040518083038186803b158015610a1057600080fd5b505afa158015610a24573d6000803e3d6000fd5b505050506040513d601f19601f82011682018060405250810190610a489190611341565b809750819850829950839a50849b505050505050610a6a878787878787610fec565b96509650965096509650505091939590929450565b610a87610fc6565b73ffffffffffffffffffffffffffffffffffffffff16610aa56107ed565b73ffffffffffffffffffffffffffffffffffffffff1614610afb576040517f08c379a0000000000000000000000000000000000000000000000000000000008152600401610af2906115b6565b60405180910390fd5b600260009054906101000a900473ffffffffffffffffffffffffffffffffffffffff1673ffffffffffffffffffffffffffffffffffffffff168173ffffffffffffffffffffffffffffffffffffffff1614610b8b576040517f08c379a0000000000000000000000000000000000000000000000000000000008152600401610b82906115d6565b60405180910390fd5b600260006101000a81549073ffffffffffffffffffffffffffffffffffffffff0219169055610bb981611023565b50565b60036020528060005260406000206000915054906101000a900473ffffffffffffffffffffffffffffffffffffffff1681565b600260009054906101000a900473ffffffffffffffffffffffffffffffffffffffff1681565b610c1d610fc6565b73ffffffffffffffffffffffffffffffffffffffff16610c3b6107ed565b73ffffffffffffffffffffffffffffffffffffffff1614610c91576040517f08c379a0000000000000000000000000000000000000000000000000000000008152600401610c88906115b6565b60405180910390fd5b600073ffffffffffffffffffffffffffffffffffffffff168173ffffffffffffffffffffffffffffffffffffffff161415610d01576040517f08c379a0000000000000000000000000000000000000000000000000000000008152600401610cf890611576565b60405180910390fd5b8073ffffffffffffffffffffffffffffffffffffffff1660008054906101000a900473ffffffffffffffffffffffffffffffffffffffff1673ffffffffffffffffffffffffffffffffffffffff167f8be0079c531659141344cd1fd0a4f28419497f9722a3daafe3b4186f6b6457e060405160405180910390a3806000806101000a81548173ffffffffffffffffffffffffffffffffffffffff021916908373ffffffffffffffffffffffffffffffffffffffff16021790555050565b610dc6610fc6565b73ffffffffffffffffffffffffffffffffffffffff16610de46107ed565b73ffffffffffffffffffffffffffffffffffffffff1614610e3a576040517f08c379a0000000000000000000000000000000000000000000000000000000008152600401610e31906115b6565b60405180910390fd5b80600260006101000a81548173ffffffffffffffffffffffffffffffffffffffff021916908373ffffffffffffffffffffffffffffffffffffffff16021790555050565b60008060008060008060016040518060400160405290816000820160009054906101000a900461ffff1661ffff1661ffff1681526020016000820160029054906101000a900473ffffffffffffffffffffffffffffffffffffffff1673ffffffffffffffffffffffffffffffffffffffff1673ffffffffffffffffffffffffffffffffffffffff16815250509050806020015173ffffffffffffffffffffffffffffffffffffffff1663feaf968c6040518163ffffffff1660e01b815260040160a06040518083038186803b158015610f5657600080fd5b505afa158015610f6a573d6000803e3d6000fd5b505050506040513d601f19601f82011682018060405250810190610f8e9190611341565b809650819750829850839950849a505050505050610fb486868686868660000151610fec565b95509550955095509550509091929394565b600033905090565b6000806000604084901c905060008490508181935093505050915091565b6000806000806000610ffe868c611142565b8a8a8a61100b8a8c611142565b94509450945094509450965096509650965096915050565b600060018060000160009054906101000a900461ffff166110449190611742565b905060405180604001604052808261ffff1681526020018373ffffffffffffffffffffffffffffffffffffffff16815250600160008201518160000160006101000a81548161ffff021916908361ffff16021790555060208201518160000160026101000a81548173ffffffffffffffffffffffffffffffffffffffff021916908373ffffffffffffffffffffffffffffffffffffffff16021790555090505081600360008361ffff1661ffff16815260200190815260200160002060006101000a81548173ffffffffffffffffffffffffffffffffffffffff021916908373ffffffffffffffffffffffffffffffffffffffff1602179055505050565b60008167ffffffffffffffff1660408461ffff16901b17905092915050565b600061117461116f846116f5565b6116d0565b90508281526020810184848401111561118c57600080fd5b61119784828561183b565b509392505050565b6000813590506111ae816119d8565b92915050565b6000815190506111c3816119ef565b92915050565b600082601f8301126111da57600080fd5b81516111ea848260208601611161565b91505092915050565b60008135905061120281611a06565b92915050565b60008151905061121781611a1d565b92915050565b60008135905061122c81611a4b565b92915050565b60008151905061124181611a4b565b92915050565b60008151905061125681611a34565b92915050565b60006020828403121561126e57600080fd5b600061127c8482850161119f565b91505092915050565b60006020828403121561129757600080fd5b600082015167ffffffffffffffff8111156112b157600080fd5b6112bd848285016111c9565b91505092915050565b6000602082840312156112d857600080fd5b60006112e6848285016111f3565b91505092915050565b60006020828403121561130157600080fd5b600061130f84828501611208565b91505092915050565b60006020828403121561132a57600080fd5b60006113388482850161121d565b91505092915050565b600080600080600060a0868803121561135957600080fd5b600061136788828901611232565b9550506020611378888289016111b4565b945050604061138988828901611208565b935050606061139a88828901611208565b92505060806113ab88828901611232565b9150509295509295909350565b6000602082840312156113ca57600080fd5b60006113d884828501611247565b91505092915050565b6113ea8161177a565b82525050565b6113f981611805565b82525050565b6114088161178c565b82525050565b600061141982611726565b6114238185611731565b935061143381856020860161183b565b61143c816118fd565b840191505092915050565b6000611454602683611731565b915061145f8261190e565b604082019050919050565b6000611477601e83611731565b91506114828261195d565b602082019050919050565b600061149a602083611731565b91506114a582611986565b602082019050919050565b60006114bd601b83611731565b91506114c8826119af565b602082019050919050565b6114dc81611796565b82525050565b6114eb816117c4565b82525050565b6114fa81611829565b82525050565b611509816117ef565b82525050565b611518816117e2565b82525050565b600060208201905061153360008301846113e1565b92915050565b600060208201905061154e60008301846113f0565b92915050565b6000602082019050818103600083015261156e818461140e565b905092915050565b6000602082019050818103600083015261158f81611447565b9050919050565b600060208201905081810360008301526115af8161146a565b9050919050565b600060208201905081810360008301526115cf8161148d565b9050919050565b600060208201905081810360008301526115ef816114b0565b9050919050565b600060208201905061160b60008301846114d3565b92915050565b600060208201905061162660008301846114e2565b92915050565b600060208201905061164160008301846114f1565b92915050565b600060208201905061165c6000830184611500565b92915050565b600060a0820190506116776000830188611500565b61168460208301876113ff565b61169160408301866114e2565b61169e60608301856114e2565b6116ab6080830184611500565b9695505050505050565b60006020820190506116ca600083018461150f565b92915050565b60006116da6116eb565b90506116e6828261186e565b919050565b6000604051905090565b600067ffffffffffffffff8211156117105761170f6118ce565b5b611719826118fd565b9050602081019050919050565b600081519050919050565b600082825260208201905092915050565b600061174d82611796565b915061175883611796565b92508261ffff0382111561176f5761176e61189f565b5b828201905092915050565b6000611785826117a4565b9050919050565b6000819050919050565b600061ffff82169050919050565b600073ffffffffffffffffffffffffffffffffffffffff82169050919050565b6000819050919050565b600067ffffffffffffffff82169050919050565b600060ff82169050919050565b600069ffffffffffffffffffff82169050919050565b600061181082611817565b9050919050565b6000611822826117a4565b9050919050565b6000611834826117ce565b9050919050565b60005b8381101561185957808201518184015260208101905061183e565b83811115611868576000848401525b50505050565b611877826118fd565b810181811067ffffffffffffffff82111715611896576118956118ce565b5b80604052505050565b7f4e487b7100000000000000000000000000000000000000000000000000000000600052601160045260246000fd5b7f4e487b7100000000000000000000000000000000000000000000000000000000600052604160045260246000fd5b6000601f19601f8301169050919050565b7f4f776e61626c653a206e6577206f776e657220697320746865207a65726f206160008201527f6464726573730000000000000000000000000000000000000000000000000000602082015250565b7f4e6f2070726f706f7365642061676772656761746f722070726573656e740000600082015250565b7f4f776e61626c653a2063616c6c6572206973206e6f7420746865206f776e6572600082015250565b7f496e76616c69642070726f706f7365642061676772656761746f720000000000600082015250565b6119e18161177a565b81146119ec57600080fd5b50565b6119f88161178c565b8114611a0357600080fd5b50565b611a0f81611796565b8114611a1a57600080fd5b50565b611a26816117c4565b8114611a3157600080fd5b50565b611a3d816117e2565b8114611a4857600080fd5b50565b611a54816117ef565b8114611a5f57600080fd5b5056fea2646970667358221220a6025890d6ee3ce5e33e5868b9feb37b7b801e175e2bdea6508238040688ca9664736f6c63430008040033",
  "linkReferences": {},
  "deployedLinkReferences": {}
}